:100000000C9426010C9443010C9443010C9443017D
:100010000C9443010C9443010C9443010C94430150
:100020000C9443010C9455030C9443010C9443012C
:100030000C9443010C9443010C9443010C94430130
:100040000C9443010C9443010C9443010C94430120
:100050000C944301C103DA03F3030C0424042404C5
:100060002404240424042404240424042404240450
:100070002404240424042404240424042404240440
:100080002404240424042404240424042404240430
:1000900024042404C103DA03F3030C0431044A04E6
:1000A00063047C04940494049404940494049404D9
:1000B0009404940494049404940494049404940480
:1000C0009404940494049404940494049404940470
:1000D00094049404940494049404940431044A040D
:1000E00063047C04A004AA04B404BE04C704C704C7
:1000F000C704C704C704C704C704C704C704C704A8
:10010000C704C704C704C704C704C704C704C70497
:10011000C704C704C704C704C704C704C704C70487
:10012000C704C704A004AA04B404BE04D404DD04B4
:10013000E604EF04F704F704F704F704F704F70400
:10014000F704F704F704F704F704F704F704F704D7
:10015000F704F704F704F704F704F704F704F704C7
:10016000F704F704F704F704F704F704D404DD04F4
:10017000E604EF0403050D05170521052A052A05E8
:100180002A052A052A052A052A052A052A052A05F7
:100190002A052A052A052A052A052A052A052A05E7
:1001A0002A052A052A052A052A052A052A052A05D7
:1001B0002A052A0503050D05170521053605400505
:1001C0004A0554055D055D055D055D055D055D053B
:1001D0005D055D055D055D055D055D055D055D050F
:1001E0005D055D055D055D055D055D055D055D05FF
:1001F0005D055D055D055D055D055D053605400533
:100200004A0554056905700577057E058405840552
:100210008405840584058405840584058405840596
:100220008405840584058405840584058405840586
:100230008405840584058405840584058405840576
:10024000840584056905700577057E0511241FBEA8
:10025000CFE5D8E0DEBFCDBF10E0A0E6B0E0E6EC31
:10026000FCE002C005900D92AA3EB107D9F720E04C
:10027000AAEEB0E001C01D92AF3EB207E1F70E94C6
:10028000BF020C9461060C94000061E083E40E94BC
:10029000F80460E083E40E942B0561E083E40E949F
:1002A000C9040895EF92FF921F93CF93DF931F929B
:1002B000CDB7DEB780E28983E12CF12C61E083E4E5
:1002C0000E94C90440E06E2D83E40E94250410E0E2
:1002D00064E0610F83E40E949504811112C087E8F5
:1002E00093E10197F1F700C00000F701EE0FFF1F47
:1002F000EE0DFF1DE05AFF4FE10FF11D8081898354
:1003000003C01F5F133021F79FEFE91AF90A84E059
:10031000E816F10499F689810F90DF91CF911F9132
:10032000FF90EF90089541E063E082E40E9425048D
:1003300083E08A95F1F7000040E063E082E40E94E8
:1003400025040895CF93C82F40E061E082E40E9425
:10035000250440E062E082E40E9425046C2F81E4E1
:100360000E945E050E9493016C2F6295607F81E47C
:100370000E945E050E94930181EE94E00197F1F7DF
:1003800000C00000CF91089561E081E40E942B0538
:1003900041E061E082E40E94B50341E062E082E472
:1003A0000E94B50341E063E082E40E94B50385EA60
:1003B0009EE00197F1F700C0000083E30E94A201D4
:1003C00082E30E94A20188E20E94A2018CE00E94C6
:1003D000A20181E00E94A20186E00E94A20108958C
:1003E00081E00E94A2010895CF93C82F41E061E00F
:1003F00082E40E94250440E062E082E40E94250439
:100400006C2F81E40E945E050E9493016C2F62951F
:10041000607F81E40E945E050E94930181EE94E07A
:100420000197F1F700C00000CF9108950F931F933B
:10043000CF93FC018081882359F08F01C0E00E9496
:10044000F401CF5FF801EC0FF11D80818111F7CF2E
:10045000CF911F910F9108950F931F93CF93DF9327
:10046000CDB7DEB7AA970FB6F894DEBF0FBECDBFEB
:100470008C018AE0ECE6F0E0DE01119601900D922D
:100480008A95E1F70115110539F480E38B8F1C86FD
:10049000E1E0F0E041E041C040E0EBE1F0E0EC0FF2
:1004A000FD1FE40FF11D9801ADECBCEC0E9452065B
:1004B0009695879596958795969587959C01220F99
:1004C000331F880F991F880F991F880F991F820F5C
:1004D000931F9801281B390BA1E0B0E0AC0FBD1FA2
:1004E000A20FB11D8C9180839801ADECBCEC0E94F1
:1004F00052068C0116950795169507951695079542
:100500004F5F0115110549F6E42FF0E0DE01AE0F53
:10051000BF1F1B961C92442371F0DE015B968BE09B
:1005200090E08C0F9D1FE80FF91F80E09D91929342
:100530008F5F8417D8F3CE010B960E941602AA96FD
:100540000FB6F894DEBF0FBECDBFDF91CF911F91E4
:100550000F910895811105C080E8860F0E94A201C5
:10056000089580EC860F0E94A201089580E00E9409
:10057000AC0308950E94B6029695879508950E944F
:10058000B1050E94C4010E9445010E949B0580E0C4
:100590000E94830386E790E00E94160260E081E0FB
:1005A0000E94AA020E94C10567E574E00E94F1055D
:1005B000813009F068C00E94F00185E890E00E9457
:1005C000160260E081E00E94AA0286E990E00E94A3
:1005D00016022FEF83ED90E3215080409040E1F729
:1005E00000C000000E94F0010E948C050F2EFEEE5C
:1005F000EF2EF0E0FF2EF02D6894DD24D3F804E018
:1006000060E081E00E94AA02CAEED0E00E94AD053F
:10061000182F0E94F40119931882CE15DF05B1F747
:100620008AEE90E00E942C061092EA00823041F09F
:10063000833051F0813069F48BB380278BBB11C0BC
:100640008BB38D258BBB0DC098B381E0892788BB08
:1006500008C060E081E00E94AA0283EA90E00E9464
:1006600016022FEF89E698E1215080409040E1F793
:1006700000C0000060E081E00E94AA0281EB90E0EF
:100680000E941602BDCF0E94F0018FEB90E00E9405
:1006900016022FEF83ED90E3215080409040E1F768
:1006A00000C000000E94F00175CF1F920F920FB69C
:1006B0000F9211242F933F934F935F936F937F93E8
:1006C0008F939F93AF93BF93EF93FF930E94BA02D0
:1006D0000E94F80560E081E00E94AA028AEE90E0A4
:1006E0000E941602FF91EF91BF91AF919F918F9160
:1006F0007F916F915F914F913F912F910F900FBE1E
:100700000F901F9018959AB321E030E0082E02C098
:10071000220F331F0A94E2F7292B2ABB379A96B18E
:10072000987F96B996B1976096B997B19F7397B92C
:100730003E9A3D9897B197B93D98359A90B79F7179
:1007400090BF90B790BF97B1907E97B997B1892B22
:1007500087B90895369A08950E94AA03349BFECF64
:1007600084B125B190E0922B089590E0FC01E15412
:10077000F109E432F10508F067C0E65DFF4F0C9423
:100780004C06413059F42AB381E090E002C0880F52
:10079000991F6A95E2F7822B8ABB08952AB381E0FC
:1007A00090E002C0880F991F6A95E2F78095822336
:1007B0008ABB0895413059F427B381E090E002C02C
:1007C000880F991F6A95E2F7822B87BB089527B39C
:1007D00081E090E002C0880F991F6A95E2F780954A
:1007E000822387BB0895413059F424B381E090E01F
:1007F00002C0880F991F6A95E2F7822B84BB089587
:1008000024B381E090E002C0880F991F6A95E2F757
:100810008095822384BB0895413059F421B381E04F
:1008200090E002C0880F991F6A95E2F7822B81BB86
:10083000089521B381E090E002C0880F991F6A9566
:10084000E2F78095822381BB089590E0FC01E1549A
:10085000F109E432F10508F067C0E25BFF4F0C9448
:100860004C06413059F42BB381E090E002C0880F70
:10087000991F6A95E2F7822B8BBB08952BB381E019
:1008800090E002C0880F991F6A95E2F78095822355
:100890008BBB0895413059F428B381E090E002C049
:1008A000880F991F6A95E2F7822B88BB089528B3B9
:1008B00081E090E002C0880F991F6A95E2F7809569
:1008C000822388BB0895413059F425B381E090E03C
:1008D00002C0880F991F6A95E2F7822B85BB0895A5
:1008E00025B381E090E002C0880F991F6A95E2F776
:1008F0008095822385BB0895413059F422B381E06D
:1009000090E002C0880F991F6A95E2F7822B82BBA4
:10091000089522B381E090E002C0880F991F6A9584
:10092000E2F78095822382BB089590E0FC01E154B8
:10093000F109E432F10558F5EE58FF4F0C944C06DE
:1009400029B381E090E002C0880F991F6A95E2F711
:1009500028231DC026B381E090E002C0880F991FB4
:100960006A95E2F7282313C023B381E090E002C028
:10097000880F991F6A95E2F7282309C020B381E008
:1009800090E002C0880F991F6A95E2F72823822F12
:10099000089590E0FC01E154F109E432F10538F5E5
:1009A000EA56FF4F0C944C06613021F48BB38FEF65
:1009B0008BBB08958BB31BBA0895613021F488B3C3
:1009C0008FEF88BB089588B318BA0895613021F479
:1009D00085B38FEF85BB089585B315BA089561304F
:1009E00021F482B38FEF82BB089582B312BA0895C7
:1009F00090E0FC01E154F109E432F10558F5E654C8
:100A0000FF4F0C944C06613021F48AB38F608ABB8F
:100A100008958AB3807F8ABB0895613021F487B33B
:100A20008F6087BB089587B3807F87BB089561304F
:100A300021F484B38F6084BB089584B3807F84BB2A
:100A40000895613021F481B38F6081BB089581B333
:100A5000807F81BB089590E0FC01E154F109E4320C
:100A6000F10558F5E252FF4F0C944C06613021F429
:100A70008AB3806F8ABB08958AB38F708ABB08954A
:100A8000613021F487B3806F87BB089587B38F707F
:100A900087BB0895613021F484B3806F84BB0895CF
:100AA00084B38F7084BB0895613021F481B3806F6B
:100AB00081BB089581B38F7081BB089590E0FC01E4
:100AC000E154F109E432F105F8F4EE5FFE4F0C94C5
:100AD0004C068BB38F708BBB607F682B6BBB08950C
:100AE00088B38F7088BB607F682B68BB089585B31F
:100AF0008F7085BB607F682B65BB089582B38F7054
:100B000082BB607F682B6BBB08958FB780688FBFF7
:100B100089B7846089BF08958C9A8D9A1FBC1EBCCA
:100B20000E9485058EB5887F8EBD8EB584608EBD92
:100B30001DBC1CBC089587E689B98898899A1BB8A2
:100B40001AB880B5806880BD80B5826080BD80B5F0
:100B5000846080BD539A549A08955F9BFECF8CB1F8
:100B6000089541E060E082E40E94B50341E062E064
:100B700081E40E94B50341E063E081E40E94B50393
:100B800008950F931F93CF9300E010E0C0E00E9400
:100B900052018032F9F00E9452019801220F331F56
:100BA000000F111F000F111F000F111F020F131F45
:100BB000080F111D8AE20E94F401CF5F2FEF85EA32
:100BC0009EE0215080409040E1F700C00000C4301A
:100BD00019F0DDCFC430D8F2C801CF911F910F9129
:100BE000089521E08617970709F020E0822F0895E5
:100BF000CF93C82F60E080E00E94AA028EEC90E0C4
:100C00000E9416028C2F90E00E942C0283E40E9426
:100C1000F401CF910895DC018C918823C9F0FB0188
:100C20009081891749F080E00895FB01E20FF31FDE
:100C30002081421711F00EC090E09F5F292F30E015
:100C4000FD01E20FF31F40814111EFCF81E00895D4
:100C500081E0089580E00895CF93DF93EC016BED80
:100C600070E00E940B0681110FC060EE70E0CE01B3
:100C70000E940B0681110AC065EE70E0CE010E9451
:100C80000B06811105C005C081E003C082E001C0F0
:100C900083E0DF91CF910895EE0FFF1F0590F4914F
:100CA000E02D0994A29FB001B39FC001A39F700DD6
:100CB000811D1124911DB29F700D811D1124911D64
:060CC0000895F894FFCF37
:100CC6000102030405060708092A002330313233DE
:100CD600343536373839456E746572205061737312
:100CE600776F726400436F7272656374205061732C
:100CF60073776F72640053656E6420436F6D6D6128
:100D06006E640057726F6E6720436F6D6D616E641F
:100D160000202020202020202020202020200057D6
:100D2600726F6E672050617373776F7264005465DB
:100D36006D70657261747572653D006C6564310035
:0A0D46006C656432006C65643300D4
:00000001FF
